:020000041000EA
:1000000000B5324B212058609868022188439860DF
:10001000D860186158612E4B002199600221596106
:100020000121F02299502B49196001219960352056
:1000300000F044F80222904214D00621196600F024
:1000400034F8196E01211966002018661A6600F04E
:100050002CF8196E196E196E052000F02FF8012189
:100060000842F9D1002199601B49196000215960AB
:100070001A491B48016001219960EB211966A021F2
:10008000196600F012F800219960164914480160C1
:100090000121996001BC002800D000471248134993
:1000A000086003C880F30888084703B5996A0420EC
:1000B0000142FBD001200142F8D103BD02B5186610
:1000C0001866FFF7F2FF186E186E02BD00000240BE
:1000D000000000180000070000035F00212200005C
:1000E000F4000018222000A00001001008ED00E03C
:1000F00000000000000000000000000074B24E7A12
:1001000000200420F7010010CB010010CD010010E9
:10011000C9010010C9010010C9010010C901001077
:10012000C9010010C9010010C9010010CF01001061
:10013000C9010010C9010010D1010010D301001045
:10014000C1010010C1010010C1010010C101001067
:10015000C1010010C1010010C1010010C101001057
:10016000C1010010C1010010C1010010C101001047
:10017000C1010010C1010010C1010010C101001037
:10018000C1010010C1010010C1010010C101001027
:10019000C1010010C1010010C1010010C101001017
:1001A000C1010010C1010010C1010010C101001007
:1001B000C1010010C1010010C1010010C1010010F7
:1001C000EFF30580103800BE00BE00BE00BE00BECA
:1001D00000BE00BEF2EB88717CF0031098F00310B3
:1001E0003802001090A31AE71E481F49086006C88D
:1001F00081F3088810471D480068002801D019487D
:10020000F3E70DA40ECC002902D000F012F8F9E7B4
:100210001749184A002000E001C19142FCD116495B
:100220008847164988471649884700BEFDE701C937
:1002300001C29A42FBD3704798F00310C00000201F
:100240004004002018F403100000042000000420E3
:1002500018F4031000100420001004200000000017
:10026000704700000000000008ED00E0000000D032
:1002700040040020EC09002071990010252E001088
:1002800069990010F8B5C04606480749091A8B104D
:10029000C90FC91810B5491003D0044B002B00D06A
:1002A000984710BD400400204004002000000000DA
:1002B000054B10B5002B03D00449054800E000BFF2
:1002C000FFF7E2FF10BDC046000000003809002023
:1002D00068A30010F0B5DE4657464E464546D0248A
:1002E000E0B5802780262A23814683B0240601AD0D
:1002F000B601FF0192462B708846A76129000122B2
:10030000A66144480AF000F84B461B12DBB2666156
:1003100029002B70012267613E48A6619B4609F0C7
:10032000F3FF4B46DBB2666129002B700122676147
:100330003848A661994609F0E7FF5B4666612900E7
:100340002B70012267613348A66109F0DDFF4B463F
:10035000666129002B70012267612E48A66109F0B1
:10036000D3FF2B23666129002B700122A761294846
:10037000A66109F0C9FF43461B12DBB26661290082
:100380002B70012267612348A661994609F0BCFFE2
:100390004346DBB2666129002B70012267611D486C
:1003A000A661984609F0B0FF4B46666129002B70A4
:1003B000012267611748A66109F0A6FF43466661FE
:1003C00029002B70012267611248A66109F09CFF89
:1003D0002C23666129002B700122A7610D48A661BC
:1003E00009F092FF53461B0C66612B7053461B0AA3
:1003F0006B7053460322AB70290067610548A66104
:1004000009F082FF666103B0F0BCBB46B246A94664
:10041000A046F0BD0000044010B50B490B4809F0A0
:100420005DFE0321062005F0FFFA0321072005F0F9
:10043000FBFA00220121062005F010FB0022012119
:10044000072005F00BFB10BD801A060020020020DB
:1004500030B583B06B46D024D91D80258023240677
:10046000DB01AD0108700122A3610348A56109F019
:100470004BFF656103B030BD0000044030B583B070
:100480006B46D024D91D802580232406DB01AD01D5
:100490000870012263610348A56109F035FF6561B9
:1004A00003B030BD00000440F0B5DE4657464E466E
:1004B0004546D024E0B5802524062D0283B00A20CD
:1004C000656105F065FEA5610A2005F061FE6561C4
:1004D000C82005F05DFE6A46E02380268025D371A2
:1004E0006B46AD01F601A661D91D0122A561FE484A
:1004F00009F00AFF00276B466561D91DDF710122F3
:100500006661F948A56109F0FFFE03236A46694662
:1005100065610731D371F44866610122A56109F074
:10052000F3FE092293466A4659466561D1716946D0
:1005300066610122A5610731EB4809F0E5FE08225A
:1005400091466A4649466561D171694666610122F4
:10055000A5610731E44809F0D7FE162290466A46A5
:1005600041466561D171694666610122A561073125
:10057000DD4809F0C9FE0A2292466A465146656185
:10058000D171694666610122A5610731D64809F03B
:10059000BBFE3F236A46694665610731D371D24885
:1005A00066610122A56109F0AFFE78236A466946BB
:1005B00065610731D371CC4866610122A56109F0FC
:1005C000A3FE4C236A46694665610731D371C6486C
:1005D00066610122A56109F097FE6A465946656188
:1005E000D171694666610122A5610731BE4809F0F3
:1005F0008BFE6A4651466561D1716946666101228A
:10060000A5610731B84809F07FFE6A464946656131
:10061000D171694666610122A5610731B24809F0CE
:1006200073FE6A4641466561D17169466661012281
:10063000A5610731AC4809F067FE1A236A4669468E
:1006400065610731D371A84866610122A56109F08F
:100650005BFE0F2291466A4649466561D171694643
:1006600066610122A56107319F4809F04DFEE12333
:100670006A46694665610731D3719B48A6610122CC
:10068000A56109F041FE6A46694665610731D77187
:10069000954866610122A56109F036FE6A46414629
:1006A0006561D171694666610122A56107318E4895
:1006B00009F02AFE19236A46694665610731D3713C
:1006C000894866610122A56109F01EFE6A4603237E
:1006D0006561D3716B466661D91D0122A5618248AF
:1006E00009F012FE6B464A466561D91DDA717E48F3
:1006F00066610E3AA56109F007FE6A460523656149
:10070000D3716B466661D91D0122A561764809F057
:10071000FBFD6A4632236561D3716B466661D91D64
:100720000122A561704809F0EFFD6A464523656125
:10073000D3716B466661D91D0122A5616A4809F033
:10074000E3FD6A4646236561D3716B466661D91D38
:100750000122A561644809F0D7FD6A46042365615A
:10076000D3716B466661D91D0122A5615E4809F00F
:10077000CBFD6A460E236561D3716B466661D91D58
:100780000122A561584809F0BFFD6A460D23656145
:10079000D3716B466661D91D0122A561524809F0EB
:1007A000B3FD6A4635236561D3716B466661D91D19
:1007B0000122A5614C4809F0A7FD6A46372365610F
:1007C000D3716B466661D91D0122A561464809F0C7
:1007D0009BFD6B464A466561D91DDA7142486661E8
:1007E0000E3AA56109F090FD6A46C0236561D37198
:1007F0006B46A661D91D0122A5613B4809F084FD25
:100800006A4617236561D3716B466661D91D012263
:10081000A561354809F078FD6A4615236561D371F5
:100820006B466661D91D0122A5612F4809F06CFD58
:100830006A46C1236561D3716B46A661D91D012249
:10084000A561294809F060FD6A4641236561D371BD
:100850006B466661D91D0122A561234809F054FD4C
:100860006A46C5236561D3716B46A661D91D012215
:10087000A5611D4809F048FD6B466561D91DDF7112
:10088000012266611848A56109F03EFD6A461223FF
:100890006561D3716B466661D91D0122A56112485D
:1008A00009F032FD6A4680236561D3716B4666614B
:1008B000D91D0122A5610C4809F026FD6A463623A0
:1008C0006561D3716B46A661D91D0122A5610648F9
:1008D00009F01AFD6A4648236561D3716B4666616B
:1008E000D91D0122A56101E000000440954809F0EE
:1008F0000BFD6A463A236561D3716B46A661D91D2B
:100900000122A5618F4809F0FFFC6A4666236561F4
:10091000D3716B466661D91D0122A561894809F032
:10092000F3FC6A46B0236561D3716B46A661D91D9D
:100930000122A561834809F0E7FC6B466561D91D7A
:10094000DF71012266617F48A56109F0DDFC6A461E
:10095000B1236561D3716B46A661D91D0122A561E2
:10096000784809F0D1FC6A46A0236561D3716B46D3
:100970006661D91D0122A561724809F0C5FC6A466D
:1009800021236561D3716B46A661D91D0122A56142
:100990006C4809F0B9FC6A46B4236561D3716B46B3
:1009A000A661D91D0122A561664809F0ADFC0223AC
:1009B00098466B4642466561D91DDA7161486661A9
:1009C000013AA56109F0A0FC6A46B6236561D371BE
:1009D0006B46A661D91D0122A5615A4809F094FC15
:1009E0006B4642466561D91DDA7156486661013A27
:1009F000A56109F089FC6B4642466561D91DDA7133
:100A000050486661013AA56109F07EFC6A463B23C5
:100A10006561D3716B466661D91D0122A5614948A4
:100A200009F072FC6A46B7236561D3716B46A66113
:100A3000D91D0122A561434809F066FC6A46C62318
:100A40006561D3716B466661D91D0122A5613D4880
:100A500009F05AFC6A46E9236561D3716B46A661C9
:100A6000D91D0122A561374809F04EFC6B4665612E
:100A7000D91DDF71012266613248A56109F044FC8D
:100A80006A46F7236561D3716B46A661D91D0122C1
:100A9000A5612C4809F038FC6A46A9236561D37129
:100AA0006B466661D91D0122A561264809F02CFC20
:100AB0006A4651236561D3716B466661D91D012277
:100AC000A561204809F020FC6A462C236561D3719A
:100AD0006B466661D91D0122A5611A4809F014FC14
:100AE0006A4682236561D3716B466661D91D012216
:100AF000A561144809F008FC6A4611236561D371A9
:100B00006B460122D91DA6610E48A56109F0FCFBC8
:100B10007820656105F03CFB6A462923D3716B465A
:100B20000122A661D91DA561064809F0EDFB7820D8
:100B3000656105F02DFB03B0F0BCBB46B246A9468B
:100B4000A046F0BD00000440F8B50D2004F09AFF67
:100B50000E2004F097FF0F2004F094FF052004F00E
:100B600091FFD02480278023802620252406DB01C6
:100B7000BF01360267620C4963620C4866626562B7
:100B800009F052F801210A2004F04EFF01210B2048
:100B900004F04AFF01210C2004F046FF6761666102
:100BA0006561FFF781FCF8BD40787D0100000440DD
:100BB000F0B5DE4657464E464546D024E0B5802780
:100BC00080262A2383B0240601ADB601FF018046AA
:100BD0002B700122A7612900A661454809F094FB0A
:100BE00000239946666101222B7029006761404805
:100BF000A66109F089FB4B46666101222B70290032
:100C000067613B48A66109F07FFB01236661012211
:100C10002B70290067613648A6619B4609F074FB7A
:100C20003F23666101222B70290067613048A6616D
:100C30009A4609F069FB2B23666101222B7029007B
:100C4000A7612B48A66109F05FFB4B466661012254
:100C50002B70290067612648A66109F055FB4B46B9
:100C6000666101222B70290067612148A66109F0A5
:100C70004BFB5B46666101222B70290067611C48B3
:100C8000A66109F041FB5346666101222B702900E1
:100C900067611748A66109F037FB2C2366610122C2
:100CA0002B702900A7611248A66109F02DFB43466D
:100CB0001B0C66612B7043461B0A6B704346AB707E
:100CC0006761A661C8246402032229000848013C28
:100CD00009F01AFB002CF7D1D02380221B069201C9
:100CE0005A6103B0F0BCBB46B246A946A046F0BD6F
:100CF00000000440A02310B55B00984203D2994243
:100D000001D2FFF7E7FA10BDF0B54E464546DE4684
:100D100057469046E0B585B00393131ADA179B182F
:100D20005340994604000E000123804500DC5B42DD
:100D3000039901938B1BDA1798185040DA17D31ACE
:100D400053409A4683460123B14200DC5B425A4637
:100D5000A02702934B467F009D1ABC4206D2BE429A
:100D600004D2310020000E9AFFF7B4FA44450ED0A9
:100D70006B009A4506DC5A46AD1A019A94466444C3
:100D80009945EADB029B4D449C466644E5E7039B9C
:100D90009E42EDD105B0F0BCBB46B246A946A04686
:100DA000F0BDC046F0B55746DE464E464546E0B576
:100DB00085B0019181188B46D11752184A4092464E
:100DC00007000122834500DC52429046A0223C00ED
:100DD00052005F4655469146A346019E00934C45FE
:100DE0001CD251464E450FD28A46310020000E9A41
:100DF000FFF770FAA74213D06B006A0019D5013EC5
:100E0000514655444E45EFD3A74200D1E9E06B006F
:100E10006A0000D4E9E06D18013EE3E7A74202D181
:100E2000019BB34222D06B006A0002D55544013EBB
:100E3000D5E75246414664189A4200DBD8E04C455B
:100E400004D24E450BD292468846CEE7A742F2D155
:100E50000198B042EFD192465F46009B08E0A7425E
:100E6000E9D1019B92468846B342DCD15F46009BA4
:100E70000198DA1784469C4461469D185540DA175C
:100E8000D31A53409846039101230095814200DC18
:100E90005B420293A0235B000500C14626009B46EF
:100EA0005E4506D25D4504D2290030000E9AFFF758
:100EB00011FAA6420ED04B465B00984506DC4A4626
:100EC0000099013E521A9146002BE9DC029B9C4698
:100ED0006544E5E7039BAB42EDD10123A74200DC6B
:100EE0005B421A00A0235B009B4643465646A94638
:100EF000904602935C451AD251465D450FD28A4610
:100F0000290020000E9AFFF7E5F9A74211D07300DF
:100F1000720017D5013D514656445D45EFD3A742B7
:100F200061D0730072000CD57618013DE5E7A74249
:100F300001D1A94529D07300720003D55644013D63
:100F4000D8E78A464A46414650466418984252DAE3
:100F50005C4505D25D4511D2914688468246CFE771
:100F6000A742F2D1AA42F0D1029B15009846019BFC
:100F7000AB4210DC01235B429A460EE0A742E4D16B
:100F8000914688468246A945D5D14D46029B984652
:100F9000019BAB42EEDD01239A46A0235B0046464F
:100FA0003C0099464C4506D24D4504D2290020000C
:100FB0000E9AFFF78FF9A74209D07300434504DB6F
:100FC000009A013CB61A002BECDC5544EAE7019B81
:100FD000AB42F2D105B0F0BCBB46B246A946A04632
:100FE000F0BD8A461CE78A46A3E70A00414622E78D
:100FF000924688461AE79146884682469EE7C04652
:10100000F8B54E464546DE465746E0B50D000A990E
:10101000060089468118002801DA0A000026E8182F
:101020008246002D36DBA0204000814200DD821B7D
:10103000A02149008A452ADC002A05DD002B03DDBA
:10104000A0235B009D4208DBF0BCBB46B246A9462C
:10105000A046F8BD01355545F6DA9E42FADAB218D7
:10106000531E9846A0235B009B464746D84501DBAC
:101070004027FF37340020004A4629000134FFF79B
:1010800029F9BC42F7DD0135AA45EEDCDCE78A46EA
:101090004B1BD1E7A0235B0099420BDD9A1B9842C2
:1010A0000ADD002AD0DD9A460025A0235B009D4280
:1010B000CADAD2E79842F4DC53460025BCE7C046C2
:1010C000F0B54E46DE4657464546E0B585B0019040
:1010D00050421600039382422EDB1300534398467E
:1010E0008B1A9946A0235B009A4602000290D145D4
:1010F0001CD2019B17009D1B330093464646984621
:101100005743029C23006343DB199E4206DB55458F
:1011100004D249462800039AFFF7DCF80134013570
:10112000A045EFDA43465A46B0461E0001239C46CE
:101130000132E1449642DADA05B0F0BCBB46B24671
:10114000A946A046F0BDC046F0B5C64605000C0055
:101150001700984600B5884201DC04000D00A02667
:101160007600B74209D2B44204D242463900200088
:10117000FFF7B0F80134A542F5DA80BCB846F0BDFF
:10118000F0B5C64607000D001400984600B5914220
:1011900001DC0C001500A0267600B74209D2B4424B
:1011A00004D2424621003800FFF794F80134A542EA
:1011B000F5DA80BCB846F0BDF0B55746DE464E467F
:1011C0004546E0B587B00093137814000700002B64
:1011D00074D0B44A894605920222250093460390B2
:1011E0000A2B64D0203BD9B25E295AD84A463E0029
:1011F000002A00DA7DE17A1D9C00E4189046059AE9
:10120000E41B23009446634401934B46BA460133E2
:1012100002930495019B5F469C5D042501232740B2
:101220002540234251D0A0235B009E4200D310E111
:10123000994500DACFE0002D00D125E108232340B5
:1012400000D073E2E30600D49BE04B46191D202535
:10125000A02325405B00994200DAE1E0002D63D035
:101260004B46591D40231C400133FF33994203DA9A
:101270003000009AFFF72EF8002C0DD0A0235B0061
:101280009E4209D24B46991DA0235B00994203DA86
:101290003000009AFFF71EF801364645BAD157468E
:1012A000049D9D2306375B009F4203DD0A239C4675
:1012B000039FE1446B780135002B91D107B0F0BC5E
:1012C000BB46B246A946A046F0BD002F33D0A023AE
:1012D0005B009E426DD2029A002A00DAD8E19A425F
:1012E00000DBCEE03000009A0299FEF7F3FF002DFC
:1012F00000D0F7E1230700D482E0A0235B009E42E8
:10130000CAD24A461025D11C2540994200DAD6E0BF
:10131000002D36D04B462025191DA02325405B000B
:1013200099427DDB002DB7D06406ABD4013646452B
:1013300000D06FE7B3E7002DDCD0A0235B009E4216
:1013400039D24A460825911C2540994255DA300089
:10135000009AFEF7BFFF002D52D0A0235B009E42F3
:101360009AD24B461025D91CA02325405B009942F8
:1013700000DBFAE13000009AFEF7ACFF002D00D050
:10138000A9E0A3061CD5A0235B009E4200D383E7FF
:101390004B46591D40231C400133FF33994200DA6C
:1013A00066E7002C00D06DE70136464500D031E7F6
:1013B00075E7002D5BD02307E3D5A30600D56BE7C7
:1013C000640600D468E74B46991DA0235B009E424B
:1013D00000D259E760E749463000009AFEF77AFFED
:1013E000002F00D05AE1002D5ED04B460825991CF5
:1013F000A02325405B009942A9DB002D00D08BE1A2
:10140000E306BED54B46191DA0235B009E4200D3C8
:1014100042E72025A02325405B00994200DB1DE721
:101420003000009AFEF756FF002DC9D04B46591DDB
:10143000A0235B00994200DB2EE73000009AFEF704
:1014400049FF640600D51DE70136464500D0E1E6B8
:1014500025E7002FADD1002D09D0230700D51BE7CC
:10146000E3068ED50136464500D0D3E617E72307BD
:1014700000D511E7E306A0D50136464500D0C9E600
:101480000DE7002D00D044E1230700D4DAE6102553
:101490002540002D00D174E7A0235B009E4200D3BD
:1014A000FAE637E7FCC50010230700D4CAE64B462E
:1014B0001025D91CA02325405B009942E9DA3000B1
:1014C000009AFEF707FF002D00D15AE7A0235B002A
:1014D0009E4200D3E0E64B462025191DA02325405F
:1014E0005B0099429CDB002D00D1D5E640231C40D7
:1014F000C2E67A1D9046059A99009446CB18DB1BEC
:101500006344019301239A462B004D469946029766
:10151000019B04279C5D52465B46274023402242A4
:101520003CD0A022520096423ED2002B00D1C6E011
:101530006B1C6FD100213000009AFEF7CBFE002F0C
:1015400000D1FCE001213000009AFEF7C3FE230722
:1015500049D4E3066CD5A023291D5B009E4215D219
:10156000002900DAB3E03000009AFEF7B3FEA306CC
:1015700047D464060AD5A023A91D5B009E4205D26C
:10158000002903DB3000009AFEF7A4FE0136464531
:10159000BED14B46029FA9461D0082E6002B0FD00C
:1015A000A0235B009E42C3D3002FEFD12307EDD4CD
:1015B000E306EBD4A306DCD501364645A8D1E8E71F
:1015C000002F49D0A0235B009E42DFD2A91C002936
:1015D00022DB3000009AFEF77DFE2307B9D5A02359
:1015E0005B009E42D2D23000009AE91CFEF772FEE8
:1015F000E3061DD53000009A291DFEF76BFEA306F9
:10160000B7D53000009A691DFEF764FE6406BDD5AB
:10161000A91DB7E7002FD9D123079AD5E91C0029C6
:1016200024DB3000009AFEF755FEE30600D596E075
:10163000A3069ED5A0235B009E42A7D2691D002968
:1016400047DB3000009AFEF745FE64069ED5A023D6
:101650005B009E429AD2DBE7230700D479E7A02300
:101660005B009E4292D2E91C0029DADAE306DFD55C
:10167000291D00D59EE03000009AFEF72BFEA30640
:1016800000D476E7A0235B009E4200D37EE7B8E754
:10169000002D38D008254949254058E6A022029B54
:1016A0005200934200D01DE6002D7AD0230700D5CA
:1016B000EDE6E30624D4A30600D481E668E6002F15
:1016C00084D12307AAD4291DE30600D548E7A30641
:1016D000B4D4A91D640600D552E70136464500D0B2
:1016E00016E756E74B460825991CA02325405B00CA
:1016F000994242D1002D00D0C9E6E30600D440E66D
:1017000020252540AAE5230747D510352C4925403B
:10171000D5E6230700D473E64B461025D91CA02339
:1017200025405B00994200DA24E601E010252540BF
:10173000002DC0D00136464500D06BE5AFE523074C
:1017400000D406E7A0235B009E4200D31EE70221DF
:101750003000009AFEF7BEFDE30600D468E7A02340
:101760005B009E4200D311E744E7002D00D108E65C
:101770000136464500D04DE591E53000009AFEF770
:10178000A9FD002D00D13BE64B461025D91CA02316
:1017900025405B009942E8DAECE5E3068BD5094980
:1017A00055E5230700D572E6E30600D4E9E54421B8
:1017B000FF314CE5A30600D540E7DAE601000080E2
:1017C000020000800300008030B5002085B0FFF7E4
:1017D000EFF9164B1648196804F0CEF88823012556
:1017E0000024A0228C211B020020009352002823F9
:1017F00049000295019402F011FAFF23912114206F
:101800000C4A019500941B02490002F0A9F99121AC
:10181000872022004900400004F024F801346420AD
:1018200004F0B6FC142CF2D105B030BDDCC70010BA
:10183000E0C7001068A30010F0B5002085B0FFF7E6
:10184000B7F98825CC230127A0222D021B02019382
:1018500000213C23002002970095520002F0DEF99F
:1018600000240226FF230A210A20284A0196009418
:101870001B0202F075F923210A20254A254B019706
:10188000009402F06DF9012350211420224A0094A3
:1018900003F07EFF02236E211420204A009403F0FF
:1018A00077FF03238C2114201D4A009403F070FF5E
:1018B0000423AA2114201B4A009403F069FF1A4B49
:1018C0008C2101930523C82200930A201433490078
:1018D00002F076FA90210F20144A154B4900FFF7C9
:1018E0006BFCFF23FA21E620124A019600951B02A9
:1018F00002F036F9FF231421E6200F4A01960095E5
:101900001B02FF3102F02CF905B0F0BD8CA30010D2
:10191000A8A3001000B0FF00B8A30010C8A30010D7
:10192000D8A30010E8A3001000669900F0A30010EF
:1019300000FFFF000CA4001014A40010F0B5DE4658
:101940004E4645465746E0B500209FB0FFF730F9B8
:10195000AE49AF4802F006FBAE4B3E279846AE4B71
:1019600000269946AD4BAE4D0A9343460E934B4627
:101970000F930E9B1B68B34200D10EE2FF2420237D
:1019800024022A683221009211A80F9A07F0BEFFA4
:1019900001230F20009311AA2300390002F04CF814
:1019A000A868C8240378FA1C002B6AD00C9505009F
:1019B00020000B960D970A2B5AD0203BD9B25E29F6
:1019C00051D8511C0591D11C0791911C0691111DF4
:1019D0000391511D0491911D02910600411D002AA1
:1019E00000DA27E19F00FF180A9B3F1A9C4602235A
:1019F0006744994693468846BA46089509905346E7
:101A00004F469C5D0425012327402540234265D095
:101A1000A0235B009B4500DADEE0002D00D195E1BC
:101A2000230700D499E0E30600D481E0A023039AC1
:101A30005B009A4200DAC2E0A30600D4A6E0A0232D
:101A4000049A5B009A4200DA8FE0640605D5A02371
:101A5000029A5B009A4200DA77E001364645CED121
:101A60005A46089D09989D2306305B00984201DD87
:101A7000C8200A326B780135002B9CD10B9E0C9D3F
:101A80000D9F20231937FF3301360C359F4200D0BC
:101A90006FE70E9B8C219846624BC8220193052369
:101AA0000A2000934900143302F08AF990210F2094
:101AB0005D4A5E4B4900FFF77FFB434696201B685B
:101AC000142200933C210923400003F097FE1FB02D
:101AD000F0BCBB46B246A946A046F0BD002F5DD083
:101AE000059B002B4ADB1A00A0235B009A4204DA14
:101AF00030004F4A0599FEF7EDFB002D65D0A0237D
:101B0000069A5B009A4226DA11003000484AFEF736
:101B1000E1FB230721D50799A0235B00994200DB55
:101B200081E73000424AFEF7D5FBE30600D57DE7AA
:101B3000A3062BD5049B002B00DB80E7640600D4B2
:101B40008BE7029B002B00DA87E73000384A0299C6
:101B5000FEF7C0FB81E72307DDD4E306E8D5039B4E
:101B6000002B00DB62E7A30610D53000304A049951
:101B7000FEF7B0FB640600D46FE768E7002D12D1D2
:101B8000230716D4E306EED4A306D7D4640600D404
:101B900063E7029B002B00DB59E75EE7002D14D0C2
:101BA000069B002BABDA230700D4C8E0079B191E65
:101BB000B7DAE30625D5039B002B00DAC2E030003C
:101BC0001B4A0399FEF786FB36E72307C5D5079B1B
:101BD000002BEEDB19009FE759463000144AFEF750
:101BE00079FB002F00D1B9E0A022059B520093425F
:101BF00000D07DE7002D82D12307AED5A121490079
:101C00008AE7A30600D428E798E7C0461CA4001082
:101C100024A40010D809002034A40010FCC5001032
:101C20000CC50010006699003CA4001000FFFF00E6
:101C30000088CC0089469900CB180A991B1A8A465D
:101C40009A445746A8468346924602230425012219
:101C5000BC5D23402540224252D0002B63D0534626
:101C6000013360D100213000534AFEF733FB002DD1
:101C70003AD001213000504AFEF72CFB23071ED436
:101C8000E30636D5039B002B72DB190030004A4A6D
:101C9000FEF720FBA30620D504993000464AFEF744
:101CA00019FB640604D502993000434AFEF712FB83
:101CB00001364E45C9D1454658465246D3E60799A6
:101CC00030003D4AFEF706FBE30612D530000399CB
:101CD000394AFEF7FFFAA306DED46406E8D5029B74
:101CE000002BE5DB1900DFE72307E8D40321E30637
:101CF000CCD4A306F1D5049B002B40DB1900CCE724
:101D0000002B10D0059B002BACD0002D04D05346E7
:101D100002330DD10021ADE72307B1D5079B002B7E
:101D200034DB1900CCE7002DF6D0069B191EA1DA92
:101D30002307A5D55346033328D10021C0E7E30686
:101D400000D45EE7A30600D487E60EE7230700D49D
:101D500003E7079B002B00DB65E62AE7002D00D098
:101D6000CDE6230700D5D6E6E30600D464E65DE6BB
:101D7000A306B2D55346053301D100218DE7640691
:101D800096D55346063393D100218DE7E306B0D5AF
:101D900053460433ECD1002178E7CC231B02019396
:101DA0008C2205230A200093391F1133520002F0C0
:101DB00007F800243E23E4E50088CC00F0B5DE46B9
:101DC0004E4645465746E0B5002093B0FEF7F0FE7C
:101DD000B54BB64F1B689B245E009846F3189B00DA
:101DE000FA58FB1810009968914602F0BBF80023DE
:101DF000962201930833009337210A205C33520066
:101E000001F0DEFF0A25640037212800A84AFEF70A
:101E100061FAA54270D1372400E001349B202100F3
:101E2000A34A4000FEF756FA9B2CF6D19B212800CE
:101E30009F4AFEF74FFA0A2D0FD0013D9B21280043
:101E40009B4AFEF747FA0A2DF7D121000A20984A4B
:101E5000FEF740FA372C07D0013C21000A20944AB3
:101E6000FEF738FA372CF7D14846924908F0C0F906
:101E7000002800D196E148468F4908F0B9F90028BA
:101E80003CD048468D4908F0B3F9002800D114E24F
:101E900048468B4908F0ACF9002800D112E24846C8
:101EA000884908F0A5F9002800D101E24846864992
:101EB00008F09EF9002800D118E24846834908F04E
:101EC00097F9002800D116E24B461B78342B00D13D
:101ED000FDE148467E4908F08BF9002800D131E247
:101EE00048467C4908F084F9002800D008E23C21EB
:101EF0000F3003F051FB05E0013585E73C210F3041
:101F000002F052FB4644744DB600BF192B68786846
:101F10009C460378002B00D1C1E1624661469200E5
:101F20008A1A9200962100240C920A220700AA46DF
:101F3000080016001900250063460A00613A192AB4
:101F400000D9A3E0AB4268DC1A000C32954264DA97
:101F50002039C9B220390C9A8218D41C0894941CD8
:101F60000994141D0694541D0794941D0594002A89
:101F700000DA1CE1541C0B94741D04948C00A146DF
:101F8000564C4944A146891B89440421884602399C
:101F90008B4634000D930E970F900A921096119570
:101FA0004B4647461D5D5E4601232F402E402B4287
:101FB00000D19BE0A0230A9A5B009A4200DAE2E09B
:101FC000002F4ED02B0751D4EB0651D5069B002B8A
:101FD00000DAC5E0A023069A5B009A4204DA1100F9
:101FE00020003F4AFEF776F9AB0600D4AAE0A02312
:101FF000079A5B009A4200DABCE06D0604D5A02384
:10200000059A5B009A423BDB049B0134A342C7D193
:102010000D9B0E9F0F98109E119D9B22073652001C
:10202000964202DB0A2601350C3079780137002907
:1020300083D12C0055462B680B3C9C4203DA2C6064
:10204000002C00DA2FE196210A20264A264B49006F
:10205000FFF7B2F813B0F0BCBB46B246A946A046A3
:10206000F0BD2B07B0D5089B002B79DBEB06B1D474
:1020700020232B4266D0079B002BB8DA6D06C3D510
:102080002000174A0599FEF725F9BDE70A29C9D0AE
:10209000AB42C2DC1A000C32AA42BEDD2039CAB201
:1020A0005E2ABAD857E7C046D80900200CC50010F0
:1020B000CCCC000064A4001070A4001078A4001020
:1020C00080A4001088A4001098A40010ACA40010F4
:1020D000B4A40010C0A4001060090020FCC50010CA
:1020E000C076300020A5001065C05B00002E32D005
:1020F000A0230B9A5B009A4204DA2000944A0B99C1
:10210000FEF7E8F8002F2ED0A023099A5B009A4230
:1021100000DBC0E0110020008D4AFEF7DBF82B0742
:1021200000D451E7A023089A5B009A429EDA11007E
:102130002000874AFEF7CEF8EB0600D54AE72023B9
:102140002B4298D140232B4200D15DE7059B002B09
:1021500000DB54E758E7002F05D0099B002BD3DAAA
:10216000AB068BD450E72B0700D42DE7089B002B40
:10217000D8DAF5E711002000754AFEF7ABF86D06D6
:1021800000D441E73BE711002000714AFEF7A2F8B6
:10219000002EB2D1002FB7D12B07C3D4EB0600D548
:1021A00018E721E73C210F3002F0DEF8AAE6741DA3
:1021B00004948C006118891B8946664C0121A14456
:1021C0000A934B460B97A9468B46370080461D0065
:1021D0000D9204235A46EC5D2340224246D0002B48
:1021E00029D0099B002B49DB00213800584AFEF713
:1021F00071F8230724D4E30629D5069B002B41DB85
:1022000002213800524AFEF765F8A3064ED4402357
:10221000234207D0059B002B04DB190038004C4AF1
:10222000FEF758F8049B0137BB42D2D140464D46D9
:102230000A9B0B9FF1E62307DDD5089B002B1FDBD4
:1022400001213800424AFEF745F8E306D8D420239E
:102250002342DCD0079B002B16DB190038003C4AD8
:10226000FEF738F86406DDD50599D7E70222224249
:10227000B5D0002BDFD00D9B0233B5D02307BAD5E4
:10228000E306E4D5A306C2D56406CBD50D9B063381
:10229000C8D10021C2E72B0700D495E642E7634688
:1022A0000A3300DACFE600232B60CCE60321D5E722
:1022B0003C210F3002F0EAFC24E63C210F3002F012
:1022C000E1FA1FE63C210F3002F01AFC1AE64B46F9
:1022D0005B78322B00D0FCE54B469B78002B00D07E
:1022E000F7E53C210F2002F03FFF0BE63C210F30C9
:1022F00002F0B0FD06E63C210F3002F07BFE01E665
:10230000012391220293144B3C210193134B0F2084
:10231000009352005A2301F081FC022355210093BF
:1023200032200F4A0F4B01F087FB6E2150200E4ADE
:102330000E4BFEF741FF7D215A200D4A0D4BFEF753
:102340003BFFDFE53C210F3003F01EF8DAE5C04625
:10235000C0763000FCC50010FF804000FF408000C8
:10236000DCA4001000FFFF00E8A40010FFFF000045
:1023700008A50010CCCC0000594BF0B54E4699464C
:10238000DE465746454600234A46E0B583B0136013
:10239000544B1B68002B00D18BE0534C0025237855
:1023A0009B46524B9A4600239846514B01935B46FD
:1023B000002B62D0534620001E6807F05DFF070027
:1023C000300007F059FFC31B23D4002F55D0300035
:1023D000002602003000160000219C46009002E01A
:1023E00001318F4249D0705C625C0300413B192B84
:1023F00001D82030C0B21300413B192B01D8203244
:10240000D2B29042ECD0009863460130013660456C
:10241000E2DD53469E68300007F02EFFC01B51D40A
:102420000300002000930021844602E001318F4226
:1024300023D0725C635C10004138192801D8203227
:10244000D2B218004138192801D82033DBB29A42A1
:10245000ECD06046009B013001368342E3DA012371
:102460009C460B33E0449C464346E244142B16D072
:102470002B001D005B46002B9CD14A4641466B1C3D
:102480001360019AAD00A950012294460B32E0443A
:1024900094464246E244142A01D0142BE9D100228A
:1024A000144B1A6003B0F0BCBB46B246A946A04626
:1024B000F0BD0F4A1900013302C2142BFAD14A466B
:1024C0001360ECE701239C460B33E0449C464346F3
:1024D000E244142BE3D0142D00D06BE7DFE7C046B5
:1024E0003409002084090020640900200CC5001074
:1024F00088090020DC090020F0B5DE464546574635
:102500004E46E0B50020B5B0FEF752FBCE49CF48AD
:1025100001F028FD88231B0201938C2205233C2116
:1025200000930A2091241433520001F049FC0A253B
:102530006400FF223C2128001202FDF7CBFEA542D9
:1025400000D0B1E23C2400E00134FF2291202100C0
:1025500012024000FDF7BEFE552CF5D1FF22552199
:1025600028001202FDF7B6FE0A2D11D0FF22013D10
:10257000552128001202FDF7ADFE0A2DF6D1FF22EB
:1025800021000A201202FDF7A5FE3C2C08D0013CD8
:10259000FF2221000A201202FDF79CFE3C2CF6D1FE
:1025A0002221AB4BAB4A1EA807F0B0F901230093E0
:1025B000FF2343210F201B021EAA01F03DFAA64B68
:1025C00020219A46A54A1B6816A807F09FF9A44B3C
:1025D0009622019303235A210A2000930F3301F01E
:1025E000EFFBA04B5F210F2016AAFEF7E5FD534637
:1025F0001B681193072B01DD07221192002B00DCD1
:10260000B1E0994B00269946984B0E969846984B08
:1026100075251293974B4E460D935346159343469B
:10262000954C13931494139B0E9A1B68376893422E
:1026300000D129E2FF231B029A4620237A00149C32
:10264000D2199700E2593221009227A8129A07F076
:102650005DF9012329000F20009327AA534601F0BA
:10266000EBF9E3199868C8210378EA1C002B6FD0B6
:102670000C000F9610950A2B62D0203BD9B25E2930
:1026800059D8511C0891D11C0A91911C0991111D16
:102690000691511D0791911D05912500611D002A8C
:1026A00000DA37E19E008A46F6180D99361B330092
:1026B0008C466344039304239946023B9846013BAE
:1026C0009B46534692460B900C940493039B4E46B4
:1026D0005C5D47465B4626402740234261D0A023ED
:1026E0005B009A4500DAFBE0002E00D1A5E123074C
:1026F00000D497E0E30600D47FE0A023069A5B00B5
:102700009A4200DADFE0A30600D4C3E0A023079AD0
:102710005B009A4200DA8DE0640605D5A023059A95
:102720005B009A4200DA75E0049B01359D42CDD1F1
:1027300052460B980C9C9D2306345B009C4201DDA5
:10274000C8240A3243780130002B94D10F9E109D8B
:102750000E9B119A01330E93043619359A4200DD0F
:1027600061E7159B9A463E4B8C220193052352004C
:1027700011000A200093143301F022FB90213F4AFC
:10278000384B0F204900FEF717FD53461A68072AF9
:1027900000DD8BE135B0F0BCBB46B246A946A04691
:1027A000F0BD002F00D17DE0089B002B6ADB1A00F2
:1027B000A0235B009A4204DA2800314A0899FDF709
:1027C00089FD002E00D184E0A023099A5B009A4283
:1027D00026DA110028002A4AFDF77CFD230721D5BF
:1027E0000A99A0235B00994200DB83E72800244A72
:1027F000FDF770FDE30600D57FE7A3064AD5079BEA
:10280000002B00DB82E7640600D48DE7059B002BDC
:1028100000DA89E728001A4A0599FDF75BFD83E78E
:102820002307DDD4E306E8D5069B002B00DB64E735
:10283000A3062FD52800124A0799FDF74BFD640621
:1028400000D471E76AE7C0462CA5001034A500103B
:102850006409002044A50010340900204CA5001094
:102860000066990000FFFF0088090020DC090020B5
:1028700034A40010FCC500100CC5001060A50010A9
:102880000088CC00002E12D1230716D4E306CFD443
:10289000A306B8D4640600D446E7059B002B00DBF2
:1028A0003CE741E7002E14D0099B002B8CDA23076C
:1028B00000D4BBE00A9B191E98DAE30626D5069BD6
:1028C000002B00DAB5E028007D4A0699FDF702FDED
:1028D00019E72307A6D50A9B002BEEDB190080E73A
:1028E00051462800764AFDF7F5FC002F00D1ACE0F8
:1028F000A022089B5200934200D05DE7002E00D03A
:1029000062E723078ED5A12149006AE7A30600D418
:102910000AE778E703919900CB180D991B1B8B46AA
:102920009B4404239946023B9A46013B5F469846E6
:10293000934604900B944E46534642467C5D264097
:102940002340224253D0002B64D05B46013361D137
:10295000002128005A4AFDF7BDFC002E3BD0012182
:102960002800574AFDF7B6FC23071FD4E30637D5E6
:10297000069B002B73DB19002800514AFDF7AAFCC7
:10298000A30621D5079928004D4AFDF7A3FC64064C
:1029900004D5059928004A4AFDF79CFC039B0135A4
:1029A0009D42C8D15A4604980B9CC4E60A99280057
:1029B000434AFDF78FFCE30612D528000699404AEA
:1029C000FDF788FCA306DDD46406E7D5059B002B44
:1029D000E4DB1900DEE72307E8D40321E306CBD4C8
:1029E000A306F1D5079B002B40DB1900CBE7002B9A
:1029F00010D0089B002BABD0002E04D05B460233D6
:102A00000DD10021ACE72307B0D50A9B002B34DBA6
:102A10001900CCE7002EF6D0099B191EA0DA230777
:102A2000A4D55B46033328D10021C0E7E30600D4D8
:102A30006CE7A30600D477E6FCE6230700D4F1E6B2
:102A40000A9B002B00DB55E637E7002E00D0BBE6E3
:102A5000230700D5C4E6E30600D54EE653E6A306F9
:102A6000B2D55B46053301D100218CE7640695D5CC
:102A70005B46063392D100218CE7E306B0D55B4676
:102A80000433ECD1002177E7CC231B0201938C2285
:102A900005230A200093291F1133520001F090F9F9
:102AA00000239A463E33C9E5013542E59620054BA1
:102AB00073211B6840000093072302F09FFE69E624
:102AC0000088CC00DC09002010B586B06A460023DF
:102AD000D3820933137503F089FC00231E4A1F4C6F
:102AE00080185941002902DA01201D494042002383
:102AF0000290039100931F212000013305AA07F0E3
:102B000015FB002822DB102003F042FB03F06EFCD3
:102B10000023114A80185941002902DA0120104986
:102B20004042002316220290039100931F212000AF
:102B300002336A4407F01EFB002807DB6B46D88A85
:102B4000002803D0FF230340012B02D0002006B051
:102B500010BD000AFBE7C04620A1070020020020AC
:102B6000FFFFFF7F9F4A10B51368012B1ED0022B79
:102B700005D0032B00D1A4E0042B46D010BD732850
:102B80000BD000D87FE0B12800D1B7E000D8D5E065
:102B9000B52800D1D5E0B628F0D1934A1368122B9E
:102BA000ECDC01331360FEF7C9FEE7E7312800D102
:102BB0009CE0322800D1A6E0332800D1AFE03428D1
:102BC000DCD180204001FDF7F3FFFF2332210A20F2
:102BD000864A1B02FEF7F0FA46210A20844A854BFA
:102BE000FEF7EAFA64210A20834A844BFEF7E4FAEE
:102BF000FF238221824A1B020A20FEF7DDFA814868
:102C000003F0C6FAFEF718FEB8E7B12876D0B5286B
:102C10004DD077284BD06B2849D0B62800D1B4E0EE
:102C2000732800D1B1E06A2800D1AEE00A2800D1B3
:102C3000BBE00D2800D1B8E0082800D1C2E07F2811
:102C400000D1BFE0B22800D1BCE0202302009A43AB
:102C50001300413B192B06D90300303B092B02D945
:102C6000202800D08AE768490B681D2B00DD85E726
:102C70005A1C0A606549C85400238B54FFF77CFB3B
:102C8000FFF73AFC7AE7202874D8092800D875E7BE
:102C90005F4B0A38C0B2C340DB0700D46EE70323A2
:102CA000136000225B4B1A60FFF788F866E75A4A08
:102CB0001368002B00DC61E7013B1360FFF71CFC8D
:102CC0005CE7B1285CD049D873284CD043D86A2837
:102CD00049D06B2800D051E74E4A1368002B00DC26
:102CE0004CE7013B1360FFF769F847E701331360D6
:102CF00000223D4B1A60FEF721FE3FE701231360DF
:102D0000FEF79AFD3AE70423136000223F4B1A7046
:102D10003D4B1A60FFF730FBFFF7EEFB2EE7032376
:102D2000136007F04BFA142103F03AFE00222E4CF8
:102D3000384B21601A60FFF741F81FE7772800D071
:102D40001CE7294A1368002B00DC17E7013B1360DE
:102D5000FEF7F4FD12E77728BED00FE7B528BBD009
:102D6000B62800D00AE72B4A136801331360FFF737
:102D700025F803E76A2800D10FE76B28E1D0FDE6CC
:102D800002231360FEF7DAFDF8E6244B22491B68A4
:102D90000A68013B934200DCF0E6072A00DDEDE61D
:102DA00001320A60FFF7A8FBE8E61C4B1B68002B0A
:102DB00000DCE3E618481A4900680B4B80004158D4
:102DC00019606CE7104A1368002B00DCD6E600217E
:102DD000013B13600D4AD154FFF7CEFAFFF78CFB8D
:102DE000CCE6C04624090020D809002080A50010A8
:102DF00094A500100080FF00A8A50010808080002E
:102E0000B0A50010B80B0000840900206409002060
:102E10000900400060090020DC090020340900207E
:102E20008809002070B5C82003F0B2F9FDF78CFEC8
:102E3000FDF7F2FAFEF7C8FC0C4803F0A9F90122ED
:102E40000B4B1A60FEF7F8FC0A4D08E02B78834222
:102E500002D0FFF787FE2C70322003F099F9FFF7BC
:102E600033FE041EF2D12870F6E7C0468813000036
:102E700024090020E8090020F0B5DE4657464E46FA
:102E80004546E0B593B01C9C060091460830103AC8
:102E900000940F001D000C93FEF7B2F80822944630
:102EA000BC4462462B0011003000103B0992009494
:102EB0004A46FEF7A5F8731D9846B31D9B467D1C38
:102EC000F31D2900404622000893FDF713FF290057
:102ED00058462200FDF70EFFF31D290018002200BE
:102EE0009A46FDF707FFF21C1300BD1C29001800CD
:102EF00022000693FDF7FEFE321D13002900180084
:102F000022000793FDF7F6FE290040462200FDF758
:102F1000F1FE290058462200FDF7ECFE290050463C
:102F20002200FDF7E7FEB21C1300FD1C180029006B
:102F300022000A93FDF7DEFE290022000698FDF725
:102F4000D9FE290022000798FDF7D4FE290040464B
:102F50002200FDF7CFFE290058462200FDF7CAFEE9
:102F6000290050463D1D2200FDF7C4FE2900220025
:102F70000A98FDF7BFFE290022000698FDF7BAFE69
:102F8000290022000798FDF7B5FE290040462200DF
:102F9000FDF7B0FE290058462200FDF7ABFE2900E0
:102FA00050462200FDF7A6FE721C13007D1D18007E
:102FB000290022000B93FDF79DFE290022000A98AC
:102FC000FDF798FE290022000698FDF793FE2900E0
:102FD00022000798FDF78EFE290040462200FDF7EB
:102FE00089FE290058462200FDF784FE290050463C
:102FF000BD1D2200FDF77EFE290022000B98FDF783
:1030000079FE290022000A98FDF774FE29002200AB
:103010000698FDF76FFE290022000798FDF76AFE6B
:10302000290040462200FDF765FE2900584622008F
:10303000FDF760FE29005046FD1D2200FDF75AFEF7
:10304000290022000B98FDF755FE290022000A985E
:10305000FDF750FE290022000698FDF74BFE2900DF
:1030600022000798FDF746FE290040462200FDF7A2
:1030700041FE290058462200FDF73CFE290050463B
:103080002200FDF737FE0823B1445B424B449A46C9
:103090004B46073B03934B46063B05934B46053B8C
:1030A00004934B46043B0D934B46033B0E934B4618
:1030B000023B0F93434610935B46B0460825BB4640
:1030C0002600119302E0013D002D37D02F00099B0F
:1030D0006F435C1B320021005046FDF70BFE402F72
:1030E000F1D0320021000398FDF704FE32002100E8
:1030F0000598FDF7FFFD320021000498FDF7FAFD69
:10310000312FE0D0320021000D98FDF7F3FD3200A1
:1031100021000E98FDF7EEFD1C2FD4DC32002100BB
:103120000F98FDF7E7FD0F2FCDDC4B463200210055
:10313000581E013DFDF7DEFD002DC7D1119B5F46F6
:103140009B46109B3400464698460C9B30009C469C
:103150006744083F220039003D00FDF7CBFD002603
:10316000220029000B98FDF7C5FD220029000A98CE
:10317000FDF7C0FD220029000698FDF7BBFD2200E7
:1031800029000798FDF7B6FD220029004046FDF70B
:10319000B1FD220029005846FDF7ACFD01362200A2
:1031A00029000898FDF7A6FD082E09D033007343C7
:1031B000F5190F2BD4DD1C2BD7DD272BE4DCD9E749
:1031C00004235B424B449B464B46033B06934B46D2
:1031D000023B0026B846079302E00136082E35D0A0
:1031E00043463700F5182200290050467743FDF783
:1031F00081FD220029000398FDF77CFD22002900B3
:103200000598FDF777FD220029000498FDF772FD6F
:10321000312FE2D0220029005846FDF76BFD220035
:1032200029000698FDF766FD1C2FD6DC2200290038
:103230000798FDF75FFD0F2FCFDC4B4622002900DA
:10324000581E0136FDF756FD082EC9D113B0F0BC4B
:10325000BB46B246A946A046F0BDC046F0B5DE4624
:1032600057464E4645469846E0B58DB0169C070039
:103270000E00150005300A3A00940793FDF7C0FED2
:103280004346721D110038000A3B039200942A0045
:10329000FDF7B6FEBB1C9B46FB1C99463B1D9A46A0
:1032A000731C9846190058462200FDF723FD41463D
:1032B00022004846FDF71EFD414650462200FDF71C
:1032C00019FDB21C90467B1C180041462200049355
:1032D000FDF710FD414658462200FDF70BFD414623
:1032E00022004846FDF706FD414650462200FDF704
:1032F00001FDF21C9046049841462200FDF7FAFCBD
:10330000414658462200FDF7F5FC4146220048465A
:10331000FDF7F0FC414650462200FDF7EBFC321D64
:103320009046049841462200FDF7E4FC4146584689
:103330002200FDF7DFFC414622004846FDF7DAFC9B
:10334000220041465046FDF7D5FC7B195A1F904696
:103350001A1F0592DA1E0B9306929A1E013B0893E0
:10336000534609935B46BA460525B34627000292A9
:103370000A9302E0013D002D23D02E00039B6E43F3
:103380005C1B3A0021004046FDF7B4FC192EF1D039
:103390003A0021000598FDF7ADFC3A00210006989F
:1033A000FDF7A8FC3A0021000298FDF7A3FC092EC6
:1033B000E0DC3A0021000898013DFDF79BFC002D60
:1033C000DBD10A9B5E469B46099B3C0057469A46CA
:1033D000079B38009C466644053E220031003500BC
:1033E000FDF788FC0027220029000498FDF782FCE5
:1033F00004E03B007B43BD19092BF4DD22002900CA
:103400005846FDF777FC220029004846FDF772FC7C
:103410000137220029005046FDF76CFC052FE8D14A
:103420000122524294460B9B002563449946059B1A
:103430009B46069B9A4602E00135052D20D0AF1928
:10344000220039004046FDF755FC2200390058465D
:10345000FDF750FC220039005046FDF74BFC2200DE
:1034600039000298FDF746FC2B006B43092BE3DC87
:103470002200390048460135FDF73CFC052DDED120
:103480000DB0F0BCBB46B246A946A046F0BDC04652
:10349000F0B5DE4657464E464546E0B50E00984626
:1034A00087B0109C070015000330063A009404937F
:1034B000FDF7A6FDF21C43469346063B2A00380062
:1034C00059460094FDF79CFD7A1C9146BA1C904623
:1034D0000297771C390022004846FDF70BFC3900A3
:1034E0004046B71C2200FDF705FC39002200484683
:1034F000FDF700FC390040462200FDF7FBFB029B74
:103500009C466544AB1E03936B1E9A464346EF1ED2
:10351000B04603252600059302E0013D002D17D09B
:103520005B465C1B320021003800FDF7E3FB2B00FB
:103530006B43092BF1D0320021000398FDF7DAFB31
:10354000013D320021005046FDF7D4FB002DE7D1AC
:10355000059B340046469846049B22009B46B34494
:103560005B46DD1E29000298FDF7C4FB29002200FE
:103570004846FDF7BFFB290022004046FDF7BAFB95
:1035800053460126BA462F0025000293F4192A005B
:1035900021004846FDF7AEFB2A0021004046FDF71A
:1035A000A9FB731C0226032BF0D1D0462C00029EEF
:1035B0003D00039F290022004046FDF79BFB2900A8
:1035C00022003800FDF796FB29002200300001356B
:1035D000FDF790FBAB45EDD107B0F0BCBB46B24662
:1035E000A946A046F0BDC046F0B55746DE464E4659
:1035F0004546E0B59A46137887B017008B4602001F
:103600000190002B3FD03C0056468649039119009B
:10361000613919293ED81700203BDBB2203B0C371B
:103620009900CB180399551C8A469A445B460B3285
:103630000133009202930494059753461C786B1E45
:1036400098460123234200D0D1E00223234245D1F2
:1036500063075ED4230700D577E0E30600D590E04A
:10366000A30600D5A9E064061FD401239C46009B55
:103670000235E244AB42E0D1059F049C3A006378F6
:103680000134002BC3D107B0F0BCBB46B246A946FB
:10369000A046F0BD0A2B00D1BFE01700203BD9B2F5
:1036A0000C375E29BCD93A00E9E75F465C460C3727
:1036B0003200390040460D34FDF71CFB320021007A
:1036C0004046FDF717FB320039002800FDF712FBDA
:1036D000320021002800FDF70DFBC6E75B465A4685
:1036E000023399461900D71C40463200FDF702FB11
:1036F000320039004046FDF7FDFA32004946280005
:10370000FDF7F8FA320039002800FDF7F3FA6307F5
:10371000A0D55B465A46043399461900571D4046CA
:103720003200FDF7E7FA320039004046FDF7E2FAD1
:10373000320049462800FDF7DDFA32003900280042
:10374000FDF7D8FA230700D487E75B465A460633CD
:1037500099461900D71D40463200FDF7CBFA3200DA
:1037600039004046FDF7C6FA320049462800FDF709
:10377000C1FA320039002800FDF7BCFAE30600D494
:103780006EE708235F465B449946190032004046C5
:103790000937FDF7AFFA320039004046FDF7AAFAC3
:1037A000320049462800FDF7A5FA3200390028000A
:1037B000FDF7A0FAA30600D455E70A235F465B4451
:1037C00099461900320040460B37FDF793FA320054
:1037D00039004046FDF78EFA320049462800FDF7D1
:1037E00089FA320039002800FDF784FA3BE73200FD
:1037F00059464046FDF77EFA029F320039004046A6
:10380000FDF778FA320059462800FDF773FA3200C6
:1038100039002800FDF76EFA17E716339C46019A27
:10382000E3442CE7FCC50010F0B54E465746DE4693
:103830004546E0B51E0013788946170001008BB09D
:10384000002B5DD0394A0790069201229046320043
:103850003E0017001A00613A192A58D80D00203B83
:10386000DBB2203B12359C00E418069B09969C466F
:10387000CB1C9B464B46033305934B46DA462E0042
:103880006444039408935346033B0493039B059DB0
:103890001B78B346002218002E0003E001320336E5
:1038A000072A1BD00100434611410B42F6D0F31EFC
:1038B0009946049C019202904D4629003A0020004E
:1038C0000135FDF717FAAE42F7D10134A245F3D125
:1038D000019A029801320336072AE3D1039B5E4620
:1038E0000133039303239C46E2445645CBD1350074
:1038F000089B29009946099E73780136002BA9D1AF
:103900000BB0F0BCBB46B246A946A046F0BD0A2BA0
:1039100007D00D00203BDAB212355E2AA3D9290068
:10392000EAE726339C460799E144E5E7FCC5001029
:10393000F0B54E4657464546DE46E0B516003C4AD1
:103940008BB006920122904632003A4F89463E00E3
:1039500001003423170007901A00613A192A58D839
:103960000D00203BDBB2203B18359C00E418069B81
:1039700008969C460B1D9B464B46043305934B46CD
:10398000DA462E006444039409935346043B04939F
:10399000039B059D1B78B346002218002E0003E010
:1039A00001320436072A1BD00100434611410B4265
:1039B000F6D0331F9946049C019202904D4629008F
:1039C0003A0020000135FDF795F9AE42F7D10134F8
:1039D000A245F3D1019A029801320436072AE3D1B5
:1039E000039B5E460133039304239C46E244564501
:1039F000CBD13500099B29009946089E7378013682
:103A0000002BA9D10BB0F0BCBB46B246A946A046DC
:103A1000F0BD0A2B07D00D00203BDAB218355E2A24
:103A2000A3D92900EAE736339C460799E144E5E744
:103A3000FCC50010F0A70010F0B5DE4657464E4614
:103A40004546E0B51F0013788DB0834616001698E2
:103A50000391002B6AD042001218520091460201D5
:103A600006923E4A5946079201224D4692461A0056
:103A7000613A192A61D86A189046203BDBB2203B94
:103A80009A00D318079A0024944663440493039B36
:103A900089469C468444634605935B4608934346A7
:103AA0000A952500814409960B934B461B1A0293F5
:103AB000049B059C5B5D00229B46039B59469846F0
:103AC000AB46250004E0013280442D18072A1ED0A1
:103AD0000B00544613411C42F5D0029C0028F2DD35
:103AE000009201911690464631003A0020000136BE
:103AF000FDF700F9B542F7D10134A145F3D1009AA1
:103B000016980132019980442D18072AE0D15D46AC
:103B100001358144052DC8D1089B099E9B460B9B0E
:103B20000A9D190073780136002BA0D10DB0F0BCAE
:103B3000BB46B246A946A046F0BD0A2B07D06A187C
:103B4000203B9046DAB25E2A9AD94146EAE7069AC5
:103B5000039B9446634459460393E3E7FCC5001076
:103B6000F0B557464546DE464E469B464B1E9A46A6
:103B70004B1C99460123E0B55B4287B09846431C35
:103B800004934B4602935B461400D34681468A4613
:103B9000109F119D059346464E443B002200594616
:103BA00030000095FFF748FF4346002B31D130002D
:103BB0003B00220002990095FFF73EFF04983B006E
:103BC0002200594600950600FFF736FF01230393B4
:103BD0003B002200514630000095FFF72DFF3B00CF
:103BE0002200300002990095FFF726FF0023984637
:103BF000039B012BCFD1484651462200059B0095DF
:103C0000FFF71AFF07B0F0BCBB46B246A946A04674
:103C1000F0BD01235B420393DAE7C046F0B5574697
:103C2000DE4645464E46E0B585B0984610AB1B785B
:103C300082468B461700002B62D0002A59DDFF25F3
:103C40000E9B00241B0CDAB201920E9A2B40160A2E
:103C5000F2B202920F9A2E40100C2840C01A04F0C3
:103C600069F90F9B0090180A2840801B04F062F944
:103C70000F9A0E9943462A400D40521B81469046AA
:103C80005B44013B0393200004F054F9051C380009
:103C900004F050F9011C281C04F031F9011C061C29
:103CA000009804F040F904F067F9019B311C1D18DD
:103CB000484604F038F904F05FF9029BEDB21B1896
:103CC000DBB21B0240462D041D4304F033F9311CC6
:103CD00004F029F904F050F952460E9B5946C318D6
:103CE000DBB2A0182B43039A0134FDF749FAA7422F
:103CF000C9D105B0F0BCBB46B246A946A046F0BD4E
:103D00004346002BF5DDFF250E9B57441B0CDAB212
:103D100002920E9A2B40160AF2B201920F9A2E408E
:103D2000100C2840C01A04F005F90F9B0090180AE7
:103D30002840801B04F0FEF80E9B0F9C013F2C4096
:103D40001D40631B03933B0081464746002698466F
:103D5000300004F0EFF8041C380004F0EBF8011C0C
:103D6000201C04F0CCF8011C051C484604F0DBF8CC
:103D700004F002F9019B291C1C18009804F0D3F8E8
:103D800004F0FAF8029BE4B21B18DBB21B040398A0
:103D900024021C4304F0CEF8291C04F0C4F804F0FB
:103DA000EBF85A460E9BB218C318DBB24146504698
:103DB00023430136FDF7C8F9B742C9D199E7C04698
:103DC000F0B5DE464E4645465746E0B589B0139CF1
:103DD0008346A046994603934346129F16007C00F3
:103DE000BB4405920490121B584600934B460D00AD
:103DF000FDF706F942464B460092049832001B1B21
:103E00007919FDF7FDF8002F7BDD3E00BA467E43B1
:103E10001297D1462F00069555464C466D4302E059
:103E2000013C002C0DD0230063435B19B342F7DC47
:103E30005B464246181B3900013CFCF75BFF002C37
:103E4000F1D101235B429C46E24453460137002BEB
:103E5000E2D1059A4F469446049B069DDB1B5A46C9
:103E60006344A946BB469A4607925D4600246D43CB
:103E700003E0631C9F420ED01C00230063435B19C8
:103E80009E42F6DB5346424618194946FCF732FF7C
:103E9000631C9F42F0D101235B429C460233E34402
:103EA0009C465B46E144002BDFD1079B00229B46EA
:103EB000039B069D9C466544EB1B129706931F00CF
:103EC000129B91469A4603944C465546644302E041
:103ED000013D002D0DD02B006B431B199E42F7DBDB
:103EE0005B464246581B3900013DFCF703FF002D9D
:103EF000F1D14B46039A013301374A4508D0994620
:103F0000E2E709B0F0BCBB46B246A946A046F0BD08
:103F1000002357469946049B1400DF1B059B9B46D4
:103F2000069BBB449A464F4600257F4303E06B1C2B
:103F3000AC420ED01D002B006B43DB199E42F6DB1A
:103F40005B46424658195146FCF7D4FE6B1CAC4206
:103F5000F0D101224B4694460133E2444C45D0D087
:103F60009946E0E7F0B54E464546DE465746E0B591
:103F70000600002589B00791280003F0DBFFC54942
:103F800003F0BDFFC449071C03F0CDFF03F0F4FFAD
:103F900078380021C4B2381C03F0C5FF03F0ECFFF1
:103FA000C0B203041B18240228002343312200213D
:103FB000FDF7E6F8A02301355B009D42DCD101242A
:103FC000644220000023320009210A30FFF70CFB75
:103FD000002C00D0C1E1002332000B210A20FFF7A2
:103FE00003FB0023320009210B20FFF7FDFA0B240D
:103FF00001252000002332000A21FFF7F5FA2000F6
:10400000002332000B21FFF7EFFA0024012DD8D155
:10401000FF2332000A211B020A20FFF7E5FA079866
:1040200006F02AF942001218520016009B230A36A5
:10403000A0205B009B1B9A46984C400014230F2144
:104040000A3A801B0094FCF7DBFF00230094320047
:1040500019215046FCF7D4FF3C23FF339B1B0393ED
:104060009E235B009B1B99463E23FF339B1B984678
:1040700040239F279D25FF337F009B1B6D009B46A0
:104080000F24BF1BAD1B12E0242B1CDD332B21DDC5
:10409000402B26DD4B2B29DD542B2CDD5B2B2FDD1C
:1040A000602B32DD642B35D10134192C3AD0192321
:1040B0001B1B5B43132BE7DC3820FF302100774AC2
:1040C000801BFCF717FE9C2040002100734A801BD8
:1040D000FCF710FE3A20FF302100704A801BFCF7ED
:1040E00009FE210028006D4AFCF704FE21006B4AFE
:1040F0000398FCF7FFFD21004846684AFCF7FAFDEB
:1041000021004046654AFCF7F5FD21003800634A6E
:10411000FCF7F0FD21005846604A0134FCF7EAFD47
:10412000192CC4D153460A25B246049302E0013D3E
:10413000002D54D02E00192496206E43641B2100BC
:10414000564A4000FCF7D6FD642EF0D02E20210008
:10415000524AFF30FCF7CEFD602EE8DC97202100AC
:104160004E4A4000FCF7C6FD5B2EE0DC302021000B
:104170004A4AFF30FCF7BEFD542ED8DC98202100BF
:10418000464A4000FCF7B6FD4B2ED0DC3220210021
:10419000424AFF30FCF7AEFD402EC8DC99202100DA
:1041A0003E4A4000FCF7A6FD332EC0DC342021003F
:1041B0003A4AFF30FCF79EFD242EB8DC9A202100FD
:1041C000364A4000FCF796FD132EB0DC3620210065
:1041D000324AFF30013DFCF78DFD002DAAD1049B32
:1041E000192118002D4AFCF785FD38235646FF3368
:1041F0009B1B04939C2319245B009B1B0593274A5C
:1042000021000498FCF776FD3A235246FF339B1AAF
:10421000069321009D26214A0598FCF76BFD534625
:104220007600F61A21001D4A0698FCF763FD21006E
:1042300030001A4AFCF75EFD2100184A0398FCF78B
:1042400059FD21004846154AFCF754FD210040461F
:10425000124AFCF74FFD21003800104AFCF74AFDD6
:10426000210058462C000D4A0135FCF743FD0A2D6C
:104270000DD02B006B431A34132BC0DD242BC8DD6B
:10428000332BCFDD402BD2DD4B2BDADCD4E70025FE
:1042900009E0C0460000A043000088420088CC002E
:1042A00001350A2D4CD02C009620193421002D4ABE
:1042B0004000FCF71FFD2E2021002A4AFF30FCF7AA
:1042C00019FD97202100274A4000FCF713FD3020FC
:1042D0002E002100234AFF30FCF70CFD98206E438E
:1042E0002100204A4000FCF705FD4B2ED8DC32208F
:1042F00021001C4AFF30FCF7FDFC402ED0DC992049
:104300002100184A4000FCF7F5FC332EC8DC3420AD
:104310002100144AFF30FCF7EDFC242EC0DC9A206B
:104320002100104A4000FCF7E5FC132EB8DC3620D3
:1043300021000C4AFF300135FCF7DCFC0A2DB2D11C
:1043400000231421079A0398FCF736FF09B0F0BC4C
:10435000BB46B246A946A046F0BD012509246D42E0
:1043600047E6C0460088CC00F0B514234546804699
:1043700057464E46DE464344E0B599460E00632359
:104380001E3643444F469A4600258946340087B07E
:10439000280003F0CFFD754903F0B1FD00218346ED
:1043A00003F0C1FD03F0E8FD7149C6B2584603F0C1
:1043B000BAFD03F0E1FD721E0138C3B2D2B212049D
:1043C0001B02134351466219380033430135FCF791
:1043D000BBFE192DDCD12A239C46CC4463464046C3
:1043E0004C461900082203930F30624BFCF768FE1D
:1043F000210040460023032228310C30FCF760FEE8
:10440000210040465C4A27310B30FCF773FC0F2338
:104410009C46464627004546CC446346574A733679
:104420006435193791463900280000923200049310
:10443000FCF76AFC23239B464B46A34432005946B3
:10444000280000933B00FCF75FFC4B46143732001A
:104450003900280000935B46FCF756FC4B462100D0
:1044600032002800009337313B00FCF74DFC8223DB
:1044700043449946434642465D4232239B1A2600F6
:104480009A4647465B4600200021A3460A36AA37D3
:1044900005934C460AE028008238001902F08EFD90
:1044A000374A384B02F01BFD02F008FE0022364B63
:1044B00002F015FD02F09AFD2F4A81192000013407
:1044C000FCF718FCBC42E6D10A35033655450AD044
:1044D0004346E81802F072FD294A2A4B02F0FFFC1D
:1044E00002F0ECFDD5E75C46059B48469B46611D06
:1044F000264A274BFCF760FE48460499254A244B80
:10450000FCF75AFE434621005D1D2800224A234B3A
:104510004131FCF751FE210028002600204A1F4BA4
:104520004B31FCF749FE40461E4F8735203633009D
:104530002A00039978300097FCF7E6FB42465B4679
:104540003100280087320097FCF7DEFB230042464B
:1045500031002800253389320097FCF7D5FB07B0DE
:10456000F0BCBB46B246A946A046F0BD0000C8411B
:1045700000009EC200FFFF00FFFF00000080FF0060
:10458000333333333333D33F0000104050C1001076
:10459000CCCC00005CC1001064C100100088CC00CD
:1045A00070C100104040FF003C2203009446634469
:1045B000F0B5DE464E468B4699462823574645467B
:1045C0005B449A460400E0B589B051469C4B02908A
:1045D000233A4846FCF774FD20005946CC230822B4
:1045E000233137301B02FCF76BFD20005946CC23EA
:1045F00006222D3141301B02FCF762FD20003221E2
:10460000CC2359441B02042232300391FCF758FD9D
:10461000002300240025002698468A4F1AE04046D1
:1046200002F0CCFC884A894B02F059FC0022884BEE
:1046300002F055FC02F016FD03F0A4FC04000D008E
:1046400002F026FD06000F002000290002F036FDD2
:1046500004000D0000227F4B3000390002F03FFCC7
:1046600002F0C4FC4844060000227A4B20002900D6
:1046700002F035FC02F0BAFC50440400764B3200E4
:104680005146009303004846FCF73EFB734B032260
:1046900021003000FCF714FD01239C46E044434612
:1046A000082BBCD1029C594620006B4B5022009332
:1046B000143119238230FEF7D1FD69495F46059117
:1046C0000121684A873416001B375A4625004423C7
:1046D0008A46B846049406921900613919296CD8A3
:1046E000203BDBB2203BA81D9F00FF18059B7F1BD2
:1046F0009C46022367446A1D0796994646468346B0
:10470000B846170043465C5D534623425FD14B4693
:10471000234264D1630769D423076ED4E30600D52E
:1047200073E0A30600D578E0640600D57DE001358E
:10473000AF42E7D158460500B046079E7378013670
:10474000002BC9D1029C069B200019009B46464BBA
:104750007822009350310F231430FEF799FE59460A
:1047600020000023414A55311930FCF725FD200077
:104770003F4B039900933C2228239630FCF712FB11
:1047800059469B3420003B4A3B4B3731FCF714FD24
:1047900059462000394A384B4131FCF70DFD594646
:1047A0002000374A344B4B31FCF706FD09B0F0BC12
:1047B000BB46B246A946A046F0BD0A2B3BD0203BE3
:1047C000D9B2A81D5E2900D88EE70500B6E73100F2
:1047D0002800254AFCF78EFA4B4623429AD028003F
:1047E000214A711CFCF786FA630795D528001E4AFA
:1047F000B11CFCF77FFA230790D528001A4AF11C58
:10480000FCF778FAE30600D48BE72800164A311D3E
:10481000FCF770FAA30600D486E72800124A711D3F
:10482000FCF768FA640600D481E728000E4AB11D3F
:10483000FCF760FA7BE706339C46049DE0447DE785
:10484000FF8040000000F03F6E861BF0F921094018
:104850000000D03F008041404040FF000080FF004A
:10486000FCC500107CC1001000FFFF0088C10010D3
:10487000CCCC00009CC10010FFFF0000A4C10010C0
:10488000B0C100101E23F0B54E46DE4657464546E1
:10489000984663339A466D3B9946E0B58B460026B1
:1048A00089B08044824489440290300003F042FB86
:1048B000854903F024FB8549051C03F034FB03F014
:1048C0005BFB34380021C7B2281C03F02CFB03F03B
:1048D00053FB4C46C3B21B043B433F0232195146C3
:1048E00040463B430136FCF72FFC3C2EDDD1322302
:1048F0009C46029F2500BC446346069300239946CC
:1049000028335C469B4614339C46BC446346039361
:1049100050239C46BC446346049364239C46BC4499
:104920006346059378239C46BC4463460293012367
:104930009A4645339C46BC446346079323004C4645
:104940009946634EBB445346009623400134002BE6
:1049500000D193E02900052305225846FCF750FBBF
:1049600029000523052203980096FCF749FB29003E
:104970000523052204980096FCF742FB2900052335
:10498000052205980096FCF73BFB2900052305222C
:1049900002980096FCF734FB0A35062CD3D18C2301
:1049A0004C469A4621004B4DBA442B0050464A4A89
:1049B0000F31FCF701FC73239946503B3E009B46A8
:1049C00021008236B944A3440095444D5B464A46D3
:1049D00030001931FCF798F92B0059465046404AEF
:1049E000FCF7EAFB230021004A46300032332D3128
:1049F0000095FCF789F93B4B21009B4650463A4A0B
:104A00003731FCF7D9FB21005B4641314A46300083
:104A100000930B00FCF778F92100344E781D330029
:104A2000334A5A31FCF7C8FB230021004046069A5E
:104A3000553350310096FCF767F9210038002D4BB3
:104A400050220093463119239630FEF707FC2100CF
:104A500038002B00284A4D319B30FCF7ADFB21007C
:104A600038002B00254A5731AA30FCF7A5FB09B0C6
:104A7000F0BCBB46B246A946A046F0BD29000523BE
:104A800005224046FCF7BCFA2900052305220698BA
:104A90000096FCF7B5FA2900052305220798009631
:104AA000FCF7AEFA38002900052305225A3000969B
:104AB000FCF7A6FA380029000523052200966E307F
:104AC000FCF79EFA0A353EE70000704200004C42B7
:104AD000FFFF00000080FF00B8C1001000FFFF00D2
:104AE000C0C100104040FF00C8C10010FF00FF001F
:104AF000D0C10010FF408000E4C10010F4C10010DC
:104B0000F0B5DE4657464E4645468823E0B51B02C3
:104B100083B00C0005000093282232231431283082
:104B2000FCF76EFA23232F0099464E4EA1443237EC
:104B30003300494638000322FCF7C2FA4623984660
:104B4000A8443300494640460322FCF7B9FACC2377
:104B5000210028001B02009304220A232D313A3041
:104B6000FCF74EFA21003C310B004246380000961B
:104B7000FCF7CAF85A239A464B3B99463A4BAA444B
:104B8000A1449B4649465046009350221423FEF709
:104B90007FFC162398462D37A04441463800334AFF
:104BA000334BFCF709FB5B46210050460093502233
:104BB00014232831FEF76CFC210038002D4A2C4BC1
:104BC0002F31FCF7F9FA5B46210050460093502242
:104BD00014234131FEF75CFC21003800264A244BA7
:104BE0004831FCF7E9FA28005A3749461E23462285
:104BF000B4300096FEF732FB414638001F4A1C4B8A
:104C0000FCF7DAFA210038001D4A194B2031FCF775
:104C1000D3FA210038001B4A154B2A31FCF7CCFA95
:104C2000210028000F236422503114300096FCF735
:104C3000B9F8210028000B23552252311630009676
:104C4000FCF7DEF9210028000F4A094B55311930D5
:104C5000FCF7B2FA03B0F0BCBB46B246A946A04688
:104C6000F0BDC0464040FF0000669900FCC1001046
:104C700000FFFF0008C2001014C2001024C2001080
:104C80002CC2001034C200103CC200101E239C46EF
:104C9000F0B5DE4657464E4645468C44E0B50C001E
:104CA0000500614687B00F22594B32300E00049147
:104CB000FCF706FA280031000F22554B5030FCF764
:104CC000FFF941239A462100AA4414225046504B32
:104CD0003231FCF7F5F928239946A14408224D4BBF
:104CE00049465046FCF7ECF900224B4B0026029255
:104CF000039300239846494B00279B4623000595C4
:104D0000444698461AE0200002F058F9444A454BC0
:104D100002F0E5F80022444B02F0C3F802F0A2F9D9
:104D200003F030F906000F0002F0B2F9029003918F
:104D30003000390002F0C2F906000F00A00000198F
:104D4000193002F03BF932003B0006000F0002F080
:104D5000C6F802F04BF9029A039B4844050039005B
:104D6000300002F0BCF802F041F95B46020000930B
:104D700049462B00504652440134FBF7C5FF062C30
:104D8000C1D14446059D21002E0078363000274AC7
:104D9000204B1431FCF710FA30000499244A1D4BC3
:104DA000FCF70AFA49463000224A2600194BFCF764
:104DB00003FA2800204B50363100009378220F234D
:104DC0001430FEF765FB210028001C4A104B5531BA
:104DD0001930FCF7F1F9210096352800184A194BD3
:104DE0003C31FCF7E9F921002800174A174B4631FE
:104DF000FCF7E2F931002800154A144BFCF7DCF906
:104E000007B0F0BCBB46B246A946A046F0BDC046BE
:104E100000FFFF00FFFF00000000F03FFF00FF0069
:104E20006E861BF0F92109400000084050C20010B6
:104E30005CC200106CC20010FF40800074C2001001
:104E400090C2001000B0FF0098C200104040FF0068
:104E5000A4C20010F0B5D6464F464646C0B50F0076
:104E60005B4E193782B004000D00330039000C226C
:104E70002830FCF725F946239846A0443300390032
:104E800040460C22FCF71CF92000033F39000023A8
:104E900002222630FCF714F92000390000230222F8
:104EA0002A30FCF70DF9200039000023022244309B
:104EB000FCF706F920003900002302224830FCF7F5
:104EC000FFF8444B22002000994608373900009330
:104ED0002D323B002330FBF717FF4B46220020000A
:104EE000390000934B323B004130FBF70DFF32237A
:104EF00099462900384BA1444846009314221E23AA
:104F00002831FCF77DF82D239A462000AA4451460B
:104F1000009614370F221E30283BFCF771F8390039
:104F20004846009605230F22FCF76AF85146404692
:104F3000009605230F222600FCF762F82900274B74
:104F40006436984630000093462214231431FEF74D
:104F500085F9692399462900A14448460023204A3F
:104F60001B31FCF729F91F4B5146300000933222C8
:104F70000F23FEF78DFA3900484600231A4AFCF742
:104F80001BF92900194F30000523282241310097D1
:104F9000FCF736F82900300005232322483100971A
:104FA000FCF72EF82900300005232D224F31009701
:104FB000FCF726F82900200043460D4A55311430ED
:104FC000FCF7FAF802B0E0BCBA46B146A846F0BD1C
:104FD0000088CC004040FF00FF408000FFFF000041
:104FE000ACC200100080FF00BCC2001000FFFF0038
:104FF000C8C20010F0B5DE4657464E464546E0B5FD
:105000000C0085B0050012224A4B1E313C30FCF7E3
:1050100057F8372327009B46474EAB4419373300D8
:10502000390058460322FCF74BF841239C46AC4418
:10503000634618003900330003220390FCF740F860
:105040003223984614339946A8440F37A9443B00AD
:105050004A46390040460096FBF756FE23239A46FF
:10506000A24453465A46390040460096FBF74CFE90
:10507000534639004846039A0096FBF745FE322313
:1050800099462C4BA14449464046009314221923CB
:10509000FBF7B6FF5A2398462100284BA844404608
:1050A0000093502219232F001431FEF7D7F8210066
:1050B0005F3738000023224A1B31FCF77DF82100BE
:1050C000380000231F4A2531FCF776F81E4B49466D
:1050D0004046009350220F23FEF7DAF921003800F2
:1050E0001A4A553F1A4B3731FCF766F833004946E8
:1050F0003800184AFCF760F8210033003800164ADF
:105100003C31FCF759F8210033003800134A46318E
:10511000FCF752F821002800114A124B5531143087
:10512000FCF74AF805B0F0BCBB46B246A946A0461B
:10513000F0BDC046808080004040FF00FF804000FE
:10514000D4C20010E0C20010FF408000ECC200108A
:1051500000FFFF0000C300100CC3001018C30010B4
:1051600024C30010CCCC0000F0B557464E4645464F
:10517000DE4682465023E0B5534485B0894602930B
:1051800019234B449B461A230F00012506004B446C
:10519000984618376D425136029B39005C19200041
:1051A000654AFEF7C5FB002D00D0C1E02000414656
:1051B000614AFEF7BDFB390030005F4AFEF7B8FBDD
:1051C000012334000393594620005B4AFEF7B0FBED
:1051D00041462000584AFEF7ABFB039B0025012BFC
:1051E000DAD15946554A0298FEF7A2FB4946504685
:1051F000534B282200930F311E2314305446FEF7E0
:105200002DF849461934200000234E4A1631FBF789
:10521000D3FF4946200000234B4A2031FBF7CCFF47
:10522000494687342000494A494B1431FBF7C4FFF3
:1052300049462000464B1E31464AFBF7BDFF782306
:105240005344029332234B449B4600239846424BDF
:10525000002000210026414F039318E0404601F052
:10526000ADFE3F4A3F4B01F03AFE00223E4B01F0BB
:1052700036FE01F0F7FE02F085FE04000D0001F09D
:1052800007FF06000F002000290001F017FF002291
:10529000364B01F024FE01F0A9FE58440022344BA5
:1052A00004003900300001F01AFE01F09FFE029B5D
:1052B00021009C46039A2F4B6044FBF77DFF01239E
:1052C0009C46E0444346082BC8D1CC23494650466F
:1052D0001B020093962214234B311E30FDF7BEFFB4
:1052E000494650460023244A52312330FBF764FFDD
:1052F0005046224B594600933C221E235446C83048
:10530000FDF7BAFD4946CD34200000231C4A39314F
:10531000FBF752FF4946002320001A4A4331FBF7AE
:105320004BFF05B0F0BCBB46B246A946A046F0BD57
:1053300001235B42039346E7FF40800000FFFF002C
:10534000CCCC00004CC3001054C300105CC3001050
:1053500000B0FF0068C3001070C300100000F03FF1
:105360006E861BF0F92109400000D03F00003E404E
:1053700000004E404040FF0074C30010FF00FF00DB
:1053800090C300109CC30010F0B557464546DE465A
:105390004E4683461423E0B55B4487B00393142341
:1053A0009C468C446346049313239A4602339946E1
:1053B00001275B4498466C4D8A4489447F4205919D
:1053C000039B2A00FE188823514630001B02FEF77B
:1053D0002BFA002F00D0C0E0882330002A00494675
:1053E0001B02FEF721FA88232A00514640461B0281
:1053F0004646FEF719FA012488232A003000049952
:105400001B02FEF711FA88232A00494630001B02CE
:10541000FEF70AFA0027012CD2D1FF23039E2A00AF
:105420001B0230000499059CFEF7FEF932239C46CE
:10543000A4446346049331239A46023399463300C9
:10544000012701339846494DA244A1447F42059467
:10545000039B2A00FE188823514630001B02FEF7EA
:10546000E3F9002F00D07BE0882330002A00494672
:105470001B02FEF7D9F988232A00514640461B0239
:105480004646FEF7D1F9012488232A00300004990A
:105490001B02FEF7C9F988232A00494630001B0287
:1054A000FEF7C2F90027012CD2D1FF23059C2A0068
:1054B000049903981B02FEF7B7F9210058462C4BBC
:1054C0003C2200935D4628230F31A030FDF7D4FC29
:1054D0002100A53528000023264A1631FBF76CFE73
:1054E000210028000023244A2031FBF765FE21001B
:1054F00028000023214A2A31FBF75EFE21004135B6
:1055000028001F4A1F4B1931FBF756FE21002800C7
:105510001D4A1C4B2331FBF74FFE210028001B4A7C
:10552000184B2D31FBF748FE21005846184B6422DA
:1055300000934B310F232830FDF790FE2100584691
:105540000023144A50312D30FBF736FE07B0F0BC73
:10555000BB46B246A946A046F0BD012464424BE7D3
:105560000124644290E7C0460CA4001014A400106B
:1055700000B0FF00A4C30010ACC30010B4C30010FF
:10558000BCC30010FFFF0000C4C30010D0C3001054
:10559000CCCC0000D8C30010F0B5DE464E464546E0
:1055A000574683468946E0B5674B85B014221E31C5
:1055B000323000931E23FBF7F5FB49465846634BF8
:1055C000102200935E461A234D4620313430FBF7FB
:1055D00017FD0024373623352000032101F0E0F9C0
:1055E000880001222900584B80190134FBF768FD1F
:1055F0000335082CF0D14C465846544D193421003F
:105600002B0004223C30FBF75BFD5A465846504BBA
:10561000210000933E3223003A30FBF775FB4946E8
:1056200058460F231E22283150305C460095FDF766
:105630002FFF4946553400232000464A2D31FBF701
:10564000BBFD4946002320003531434AFBF7B4FD3A
:105650005F235B4403932F234B449A46002300208F
:105660000021002698463D4F18E0404601F0A6FC78
:105670003B4A3C4B01F033FC00223B4B01F011FC58
:1056800001F0F0FC02F07EFC04000D0001F000FDD2
:1056900006000F002000290001F010FD0022334B0E
:1056A00001F01DFC01F0A2FC50440022304B04002C
:1056B0003900300001F013FC01F098FC039D2D4BE4
:1056C00042190093514623002800FBF71DFB0123DC
:1056D0009C46E0444346062BC7D149465846254BD5
:1056E000502200935C46282314317830FDF7B6FD34
:1056F00049467D342000204A144B1B31FBF75CFDEA
:10570000494620001D4A114B2531FBF755FD5146F6
:1057100020001B4A0D4BFBF74FFD4946693C20001A
:10572000184A194B4631FBF747FD49462000174AF6
:10573000154B5031FBF740FD05B0F0BCBB46B246FF
:10574000A946A046F0BDC046FFFF000000FFFF00D5
:105750000080FF00F8C3001000C400100000F03FFC
:105760006E861BF0F92109400000084000002E4021
:10577000000039404040FF0024C2001008C400105F
:1057800014C4001024C400100088CC0044C40010CD
:10579000F0B5C64600B584B098460AAB1B78040045
:1057A0000D001600002B22D0CC2300271B0229005D
:1057B00020000093C8221923FDF75EFB4346082111
:1057C0000D4A02A804F0A2F8200008353B00290089
:1057D00002AA0A30FBF7F0FC20003B00320029004F
:1057E0001930FBF7E9FC04B080BCB846F0BD882353
:1057F000FF271B023F02DAE764C40010F0B54746FA
:10580000CE4680B506000F0014001D0083B09A42FA
:1058100020DD6423180099461100684301F0C0F8A8
:105820004B468046181A0A9B611B584301F0B8F892
:105830000B4B040008223900300000936423FBF76F
:10584000B1FAFF231B02009306224346E119701CA4
:10585000FBF7D6FB03B0C0BCB946B046F0BDC046AE
:1058600080808000F0B5DE4657464E464546E0B59E
:1058700083B06B461400DA1D0323E5170E00A90F51
:105880000700601803405B1A35493800CB5C3100D3
:105890001370FF231B02FDF7A7FE07236D0F64198A
:1058A00023405B1B994614239A460A3B9B460023E0
:1058B000BA44B3440024002500269846294F26E028
:1058C000882302221B023000FBF7FAFB01239C46CF
:1058D000E0444346082B3CD0404601F06FFB224A8F
:1058E000224B01F0FCFA0022214B01F0F8FA01F002
:1058F000B9FB02F047FB04000D0001F0C9FB0600F4
:105900000F002000290001F0D9FB04000D00002247
:10591000184B3000390001F0E2FA01F067FB504407
:105920000022144B06002900200001F0D8FA01F0F3
:105930005DFB01005944C145C2D1FF2302221B0275
:105940003000FBF7BDFB01234B4498464B46072B29
:10595000C2D103B0F0BCBB46B246A946A046F0BDDA
:1059600068C400100000F03F6E861BF0F92109406A
:105970000000D03F00002E40F0B5CE46474680B52F
:10598000814683B02A208846FAF762FD0020FAF7A4
:1059900075FD0020FAF772FD0120FAF76FFD3F2038
:1059A000FAF76CFD2B20FAF753FD0020FAF766FD9D
:1059B0000020FAF763FD0120FAF760FD3F20FAF7B7
:1059C0005DFD2C20FAF744FDD02380221B06D20176
:1059D0005A61802292019A614346002B17D000271A
:1059E00001AD4A46BB00D3581A0C2A701A0A1E0E83
:1059F0006A70AB7008D000240322290009480134E2
:105A000004F082FCB442F7D10137B845E9D1D02384
:105A100080221B0692015A6103B0C0BCB946B04651
:105A2000F0BDC04600000440094A83009A1810B532
:105A300014684022544080322240064CC000A446E4
:105A400063441A60044B9C466044416010BDC046EC
:105A500004C0014004D0014000400140074B8000D9
:105A6000C3181B68C90092000A435A400C23134014
:105A7000034A9446604403607047C04604C0014036
:105A800004D001400123D022834012069362936127
:105A9000094A83009A1811684022514080320A4016
:105AA0000649C0008C4663441A60054B9C4605239A
:105AB000604443607047C04604C0014004D00140C8
:105AC000004001400FB400B5084883B004F08EF8E0
:105AD000049B002B07D005A91800019103F02AFFB1
